{
  "transactions": [
    {
      "hash": "0x590092a32985f824a3b3b6b318e7bf58191e70ce5ab4a3ff88297245ea6879a9",
      "transactionType": "CALL",
      "contractName": null,
      "contractAddress": "0xc870c170769aa6a95b050f49f466a3e0334cf1ab",
      "function": "claim(address,uint256,bytes32[],bytes)",
      "arguments": [
        "0x7f21D6Db0B059496EE1C0810898e35c125A714ab",
        "25000000000000000000",
        "[0x0fd7c981d39bece61f7499702bf59b3114a90e66b51ba2c53abdf7b62986c00a, 0xe5ebd1e1b5a5478a944ecab36a9a954ac3b6b8216875f6524caa7a1d87096576]",
        "0xd6afb96ec128e93a715041745dbae51733e7d8f0a0e7e4f10d71bd778fa089de404bcba4eae56f8180da30e92b7a71939f40187cd95ebecd54e0e7a52691d1f21c"
      ],
      "transaction": {
        "from": "0x7f21d6db0b059496ee1c0810898e35c125a714ab",
        "to": "0xc870c170769aa6a95b050f49f466a3e0334cf1ab",
        "gas": "0x207e3",
        "value": "0x0",
        "input": "0xa240f2a80000000000000000000000007f21d6db0b059496ee1c0810898e35c125a714ab0000000000000000000000000000000000000000000000015af1d78b58c40000000000000000000000000000000000000000000000000000000000000000008000000000000000000000000000000000000000000000000000000000000000e000000000000000000000000000000000000000000000000000000000000000020fd7c981d39bece61f7499702bf59b3114a90e66b51ba2c53abdf7b62986c00ae5ebd1e1b5a5478a944ecab36a9a954ac3b6b8216875f6524caa7a1d870965760000000000000000000000000000000000000000000000000000000000000041d6afb96ec128e93a715041745dbae51733e7d8f0a0e7e4f10d71bd778fa089de404bcba4eae56f8180da30e92b7a71939f40187cd95ebecd54e0e7a52691d1f21c00000000000000000000000000000000000000000000000000000000000000",
        "nonce": "0x11e",
        "chainId": "0xaa36a7"
      },
      "additionalContracts": [],
      "isFixedGasLimit": false
    }
  ],
  "receipts": [
    {
      "status": "0x1",
      "cumulativeGasUsed": "0x10135b3",
      "logs": [
        {
          "address": "0xc870c170769aa6a95b050f49f466a3e0334cf1ab",
          "topics": [
            "0x2805b85c1842780a20d2f065a1bd3ce4f3a7b87a80be63e99adee4525da730ec",
            "0x0000000000000000000000007f21d6db0b059496ee1c0810898e35c125a714ab"
          ],
          "data": "0x0000000000000000000000000000000000000000000000015af1d78b58c40000",
          "blockHash": "0xbf6ff9a8a00cb9651232db7807177dceb0e365fa53b45c524a305def04ae2c53",
          "blockNumber": "0x7a6555",
          "blockTimestamp": "0x67eaace8",
          "transactionHash": "0x590092a32985f824a3b3b6b318e7bf58191e70ce5ab4a3ff88297245ea6879a9",
          "transactionIndex": "0x97",
          "logIndex": "0xb5",
          "removed": false
        },
        {
          "address": "0xfb00b41cde52a58dace25fa5d0991cfa37b669db",
          "topics": [
            "0xddf252ad1be2c89b69c2b068fc378daa952ba7f163c4a11628f55a4df523b3ef",
            "0x000000000000000000000000c870c170769aa6a95b050f49f466a3e0334cf1ab",
            "0x0000000000000000000000007f21d6db0b059496ee1c0810898e35c125a714ab"
          ],
          "data": "0x0000000000000000000000000000000000000000000000015af1d78b58c40000",
          "blockHash": "0xbf6ff9a8a00cb9651232db7807177dceb0e365fa53b45c524a305def04ae2c53",
          "blockNumber": "0x7a6555",
          "blockTimestamp": "0x67eaace8",
          "transactionHash": "0x590092a32985f824a3b3b6b318e7bf58191e70ce5ab4a3ff88297245ea6879a9",
          "transactionIndex": "0x97",
          "logIndex": "0xb6",
          "removed": false
        }
      ],
      "logsBloom": "0x00000000000000000000000000000000000010001000000000000000000000000000000000000000000000000000000000000000000000000000000000000000000000000000000000000008000002000000000000000000100000000000000000000000000000000000000000000000000020200000040000000010000000000000080000000000000000000000000000000000000000000000000000000000000000200000000000000000020000000000000000000000000000000000000000000002020000000000002000000000000000000000000000000000000000000000000000000000000000000000000000008000000000000000000200002000",
      "type": "0x2",
      "transactionHash": "0x590092a32985f824a3b3b6b318e7bf58191e70ce5ab4a3ff88297245ea6879a9",
      "transactionIndex": "0x97",
      "blockHash": "0xbf6ff9a8a00cb9651232db7807177dceb0e365fa53b45c524a305def04ae2c53",
      "blockNumber": "0x7a6555",
      "gasUsed": "0x1637b",
      "effectiveGasPrice": "0x2816a6db",
      "from": "0x7f21d6db0b059496ee1c0810898e35c125a714ab",
      "to": "0xc870c170769aa6a95b050f49f466a3e0334cf1ab",
      "contractAddress": null
    }
  ],
  "libraries": [],
  "pending": [],
  "returns": {},
  "timestamp": 1743432935,
  "chain": 11155111,
  "commit": "c0b3522"
}